{
  "contractName": "PurchaseGoods",
  "abi": [
    {
      "inputs": [
        {
          "internalType": "uint256",
          "name": "",
          "type": "uint256"
        }
      ],
      "name": "customers",
      "outputs": [
        {
          "internalType": "address",
          "name": "",
          "type": "address"
        }
      ],
      "stateMutability": "view",
      "type": "function",
      "constant": true
    },
    {
      "inputs": [
        {
          "internalType": "uint256",
          "name": "goodId",
          "type": "uint256"
        }
      ],
      "name": "purchase",
      "outputs": [
        {
          "internalType": "uint256",
          "name": "",
          "type": "uint256"
        }
      ],
      "stateMutability": "nonpayable",
      "type": "function"
    },
    {
      "inputs": [],
      "name": "getCustomers",
      "outputs": [
        {
          "internalType": "address[16]",
          "name": "",
          "type": "address[16]"
        }
      ],
      "stateMutability": "view",
      "type": "function",
      "constant": true
    }
  ],
  "bytecode": "0x608060405234801561001057600080fd5b506102d7806100206000396000f3fe608060405234801561001057600080fd5b506004361061005e576000357c010000000000000000000000000000000000000000000000000000000090048063c0abda2a14610063578063efef39a1146100d1578063f1ba712714610113575b600080fd5b61008f6004803603602081101561007957600080fd5b8101908080359060200190929190505050610159565b604051808273ffffffffffffffffffffffffffffffffffffffff1673ffffffffffffffffffffffffffffffffffffffff16815260200191505060405180910390f35b6100fd600480360360208110156100e757600080fd5b810190808035906020019092919050505061018c565b6040518082815260200191505060405180910390f35b61011b6101fd565b6040518082601060200280838360005b8381101561014657808201518184015260208101905061012b565b5050505090500191505060405180910390f35b6000816010811061016657fe5b016000915054906101000a900473ffffffffffffffffffffffffffffffffffffffff1681565b600080821015801561019f5750600f8211155b6101a857600080fd5b33600083601081106101b657fe5b0160006101000a81548173ffffffffffffffffffffffffffffffffffffffff021916908373ffffffffffffffffffffffffffffffffffffffff160217905550819050919050565b61020561027e565b6000601080602002604051908101604052809291908260108015610274576020028201915b8160009054906101000a900473ffffffffffffffffffffffffffffffffffffffff1673ffffffffffffffffffffffffffffffffffffffff168152602001906001019080831161022a575b5050505050905090565b60405180610200016040528060109060208202803883398082019150509050509056fea264697066735822122034405fe7bcc83fdd84b9c3835c97724fb8f3226e8bb369cee4e8a4207bac37d664736f6c63430006000033",
  "source": "pragma solidity ^0.6.0;\n\n//  Contract to allow customers to purchahse goods\n\ncontract PurchaseGoods {\n  \n  // As there are 16 goods in the sample set we are \n  // creating an array of addresses for 16 potential customers\n\n  address[16] public customers;\n\n  // Function to assign an customer address for a given good\n  function purchase(uint goodId) public returns (uint) {\n    // Ensure we have a valid id\n    require(goodId >= 0 && goodId <= 15);\n\n    customers[goodId] = msg.sender;\n\n    return goodId;\n  }\n\n  // Retrieving the customers\n  function getCustomers() public view returns (address[16] memory) {\n    return customers;\n  }\n}\n",
  "sourcePath": "/home/fintan/CA6001I_Mainnet/contracts/PurchaseGoods.sol",
  "compiler": {
    "name": "solc",
    "version": "0.6.0+commit.26b70077.Emscripten.clang"
  },
  "schemaVersion": "3.3.4",
  "updatedAt": "2021-03-14T20:31:10.701Z",
  "networkType": "ethereum",
  "devdoc": {
    "methods": {}
  },
  "userdoc": {
    "methods": {}
  }
}